:020000040800F2
:10000000001800207D270008692300086B230008E2
:1000100000000000000000000000000000000000E0
:100020000000000000000000000000006D23000838
:1000300000000000000000006F230008712300088A
:10004000FD27000800000000FD270008FD2700082C
:10005000FD270008FD270008FD270008FD270008F0
:1000600000000000FD27000879230008FD27000894
:10007000FD270008FD270008FD27000800000000FC
:10008000FD2700080000000000000000FD27000818
:1000900000000000FD270008FD270008FD270008DC
:1000A00000000000FD27000800000000FD270008F8
:1000B000FD2700080000000000000000FD270008E8
:1000C00010B5064C2378002B07D1054B002B02D02E
:1000D000044800E000BF0123237010BD7000002021
:1000E00000000000E0520008044B10B5002B03D0C4
:1000F0000349044800E000BF10BDC04600000000F6
:1001000074000020E052000803B471464908400022
:100110004900095E49008E4403BC70470022430831
:100120008B4274D303098B425FD3030A8B4244D3BF
:10013000030B8B4228D3030C8B420DD3FF22090201
:1001400012BA030C8B4202D31212090265D0030BC0
:100150008B4219D300E0090AC30B8B4201D3CB03B6
:10016000C01A5241830B8B4201D38B03C01A5241F8
:10017000430B8B4201D34B03C01A5241030B8B42FA
:1001800001D30B03C01A5241C30A8B4201D3CB02E5
:10019000C01A5241830A8B4201D38B02C01A5241CA
:1001A000430A8B4201D34B02C01A5241030A8B42CD
:1001B00001D30B02C01A5241CDD2C3098B4201D3E5
:1001C000CB01C01A524183098B4201D38B01C01A63
:1001D000524143098B4201D34B01C01A52410309DA
:1001E0008B4201D30B01C01A5241C3088B4201D389
:1001F000CB00C01A524183088B4201D38B00C01A36
:10020000524143088B4201D34B00C01A5241411A5C
:1002100000D20146524110467047FFE701B5002069
:1002200000F0F0F802BDC0460029F7D076E770472D
:1002300003460B437FD4002243088B4274D3030947
:100240008B425FD3030A8B4244D3030B8B4228D3E8
:10025000030C8B420DD3FF22090212BA030C8B420E
:1002600002D31212090265D0030B8B4219D300E0AE
:10027000090AC30B8B4201D3CB03C01A5241830B33
:100280008B4201D38B03C01A5241430B8B4201D3E3
:100290004B03C01A5241030B8B4201D30B03C01A0C
:1002A0005241C30A8B4201D3CB02C01A5241830A86
:1002B0008B4201D38B02C01A5241430A8B4201D3B5
:1002C0004B02C01A5241030A8B4201D30B02C01ADF
:1002D0005241CDD2C3098B4201D3CB01C01A524146
:1002E00083098B4201D38B01C01A524143098B42CF
:1002F00001D34B01C01A524103098B4201D30B01B8
:10030000C01A5241C3088B4201D3CB00C01A5241DC
:1003100083088B4201D38B00C01A524143088B42A1
:1003200001D34B00C01A5241411A00D2014652413A
:10033000104670475DE0CA0F00D04942031000D359
:100340004042534000229C4603098B422DD3030AAE
:100350008B4212D3FC22890112BA030A8B420CD3BE
:10036000890192118B4208D3890192118B4204D3E7
:1003700089013AD0921100E08909C3098B4201D367
:10038000CB01C01A524183098B4201D38B01C01AA1
:10039000524143098B4201D34B01C01A5241030918
:1003A0008B4201D30B01C01A5241C3088B4201D3C7
:1003B000CB00C01A524183088B4201D38B00C01A74
:1003C0005241D9D243088B4201D34B00C01A52414B
:1003D000411A00D20146634652415B10104601D3D8
:1003E0004042002B00D54942704763465B1000D362
:1003F000404201B5002000F005F802BD0029F8D008
:1004000016E770477047C046F0B5CE469946030CD4
:100410009C46130447461B0C1D000E006146040455
:10042000240C80B50700100C4B43654341436043E7
:100430002C0CC01824188C46A34203D980235B02DD
:100440009846C444494679435643230C2D042D0C49
:100450008919634424046019C918C0BCB946B04660
:10046000F0BDC04610B582B001F07AFD00240094C2
:10047000142300220721012001F026FD00941423FB
:1004800000220621012001F01FFD00941423002208
:100490000721042001F018FD0094142300220621F6
:1004A000042001F011FD00940023142204210020F7
:1004B00001F00AFD0094002314220321012001F021
:1004C00003FD0094002314220221022001F0FCFC11
:1004D0000094002314220221032001F0F5FC009473
:1004E000002314220321042001F0EEFC00940023D9
:1004F00014220421052001F0E7FC02B010BD30B544
:1005000083B0040001F02CFD00250095002322009B
:100510000721012001F0D8FC0095002322000721CB
:10052000042001F0D1FC00950023220006210020C8
:1005300001F0CAFC0095002322000621012001F0F1
:10054000C3FC0095002322000621022001F0BCFC20
:100550000095002322000621032001F0B5FC009540
:10056000002322000621042001F0AEFC00950023A8
:1005700022000621052001F0A7FC0095002322009F
:100580000521002001F0A0FC009500232200052198
:10059000012001F099FC0095002322000521022092
:1005A00001F092FC0095002322000521032001F0B8
:1005B0008BFC0095002322000521042001F084FC1F
:1005C0000095002322000521052001F07DFC009507
:1005D000002322000421012001F076FC0095002375
:1005E00022000421022001F06FFC0095002322006C
:1005F0000421032001F068FC00950023220004215F
:10060000042001F061FC0095002322000321022058
:1006100001F05AFC0095002322000321032001F081
:1006200053FC03B030BD000010B50C4C2078FFF730
:1006300066FF01F079FC0A4A236812689B18236060
:100640003B2B04DD064B022252421A6010BD052BE3
:10065000FCDC034B02221A60F8E7C04604000020CD
:100660000000002030B583B009250FE0E9B2E0B208
:1006700000230093002201F027FC0134052CF5DD56
:1006800001F052FC282002F005F9013D002D01DBAC
:100690000024F3E79620400002F0FCF803B030BDE0
:1006A000F0B583B0042624E06B1F5BB29E4217DADC
:1006B00001356DB2092D15DC042DF5DC04235B1B1F
:1006C0005BB2F3E7C4B2E9B21223009308331222FB
:1006D000200001F0F9FB013460B20528F2DDE7E704
:1006E0000020FAE701F020FC232002F0D3F8013EBD
:1006F00076B2002E03DB01F033FC0025DAE7022599
:1007000025E0E31E5BB29D4209DA013464B2052C98
:1007100016DC022CF5DC02231B1B5BB2F3E7E6B20E
:10072000122700971A2312220421300001F0CCFB7B
:1007300000971A2312220521300001F0C5FBE4E7DF
:1007400001F0F2FB232002F0A5F8013D6DB2002D6F
:1007500003DB01F005FC0024D9E72D24009441239C
:100760002D220421022001F0AFFB009441232D2211
:100770000421032001F0A8FB009441232D22052130
:10078000022001F0A1FB009441232D22052103202A
:1007900001F09AFB01F0C8FB3C2002F07BF8052534
:1007A0002FE0E800401940000521FFF741FDC4B2E9
:1007B0001A2068430521FFF73BFDC6B200943300C1
:1007C00022000421022001F07FFB0094330022006C
:1007D0000421032001F078FB00943300220005215E
:1007E000022001F071FB0094330022000521032058
:1007F00001F06AFB01F098FB282002F04BF8013D64
:10080000EDB2002DCDD101F0ABFB01F08DFB03B0BB
:10081000F0BD0000F0B583B009243FE003F048FDCF
:100820000321FFF7EBFD4919013919D4052901DC32
:100830000E0015E0052613E0143324E0484B620057
:10084000121952009B1800225A550135052D24DC3F
:1008500003F02EFD03231E0006400342DED02E00CF
:10086000611E3F4B4A00521852009B189E5D370094
:1008700003F01EFDC217920F8018032303409B1A3A
:10088000E318072CD8DCBB42D8DAF61A344B6200E6
:10089000121952009B185E55D7E7013C002C01DD70
:1008A0000025D3E7002403E02D4B00221A55013424
:1008B000052C0DDC03F0FCFC0A21FFF79FFD0A313B
:1008C000274B1B5D8B42EFDD254A5B1A1355EEE784
:1008D00003F0EEFC6421FFF791FD3B2903DD01F0FD
:1008E0003FFB002533E003F0E3FCC30FC0180126F3
:1008F0000640F61A00250EE003F0DAFC0621FFF7A9
:100900007DFD0C0003F0D4FC1E21FFF777FD3C3188
:10091000134B19550135AE42EEDAE0E7283BDBB266
:10092000E9B2E0B20026009601F0CEFA0134052CBF
:100930000CDC0B4B6A00521952009B181A5D002AFE
:10094000F4D0131C272AE9D82823E7E70135092D1D
:1009500001DC0024EBE701F0E7FA03B0F0BDC0468C
:10096000C80D002010B500240AE00A4B5100891878
:1009700048001B18002119550132092AF5DD013400
:10098000052C06DC034B1B193C33FF221A70002296
:10099000F3E710BDC80D002030B583B000201AE089
:1009A000304B4200121852009B1800225A54013159
:1009B00005290FDC2B4B4200121852009B185B5C80
:1009C000052BEDD9274A4400241864001219063B70
:1009D0005354ECE70130092801DC0021E8E700244A
:1009E0000CE003F065FC0C21FFF708FD002904D1A1
:1009F0001C4B1B193C3309221A700134052C12DCE4
:100A0000184B1B193C33002159560029E9DB154BC3
:100A10004A00521852009A183C2010551B193C33BA
:100A200001391970E9E701F09BFA002512E0013461
:100A3000052C0EDC0B4B6A00521952009B181B5DF3
:100A4000002BF4D0E9B2E0B20022009201F03CFAAF
:100A5000EDE70135092D01DC0024E9E701F064FA36
:100A600003B030BDC80D002010B500240DE0094BC7
:100A70006100091948001B18002199549B183C3348
:100A800019700132052AF2DD0134092C01DC002243
:100A9000F8E710BDC80D002070B582B0002545E014
:100AA00003F006FCFA218900FFF7A8FC03291FDCEC
:100AB00003F0FEFB0321FFF7A1FC01313C4E6B006C
:100AC0005B195B00F61833193C33197003F0F0FB27
:100AD0001E21FFF793FC3231315509E0344B6A0097
:100AE000521952009B1800221A551B193C331A70D8
:100AF0000134052C19DC2E4B6A00521952009B1848
:100B00001B193C331B78002BCAD0294B6A005219A1
:100B100052009B181B5D042BE0D9254A6900491936
:100B200049005218033B1355E2E70135092D01DC5A
:100B30000024DEE701F014FA002530E00621300041
:100B4000FFF7ECFA3200C6B2E9B2E0B20096002339
:100B500001F0BAF90134052C20DC154B6A0052195A
:100B600052009B181B193C331B78002BF2D0104A03
:100B70006900491949005218165D012BDED0022B7D
:100B800004D0032B08D000260022DDE70621300028
:100B9000FFF7C4FAC2B2D7E77208D5E70135092DCD
:100BA00001DC0024D7E701F0BFF902B070BDC046F8
:100BB000C80D002010B5C443E4B2542C12D8A000D4
:100BC000241AE4B2601E08700020107064421C7089
:100BD0000878C00808701178C90811701A78D2080E
:100BE0001A7010BDA92C0CD856246442201AC0B229
:100BF00000240C7044000019C0B21070C04318707B
:100C0000E6E75524201AC0B244000019C0B20870AB
:100C1000C043107000201870DAE70000F0B5C64637
:100C200000B584B0194A13780333137001F098F9B2
:100C3000002520E0281914235843C0B2134B1B7819
:100C4000C018C0B20F266E440E236B4498460D2781
:100C50006F44330042463900FFF7ACFF43461B7830
:100C60003A78E9B2E0B23678009601F02DF9013415
:100C7000052CDFDD0135092D01DC0024F8E701F04A
:100C800053F904B080BCB846F0BDC0468C000020CB
:100C900070B5040003F00CFB0621FFF7AFFBC9B2EF
:100CA00000290AD1234B6200111989005918282004
:100CB000087200204872887270BD0529FCD889002E
:100CC0001D4B5B589F461B4B620011198900591838
:100CD0000020087228254D728872EDE7154B6200DE
:100CE00011198900591800200872487228228A7246
:100CF000E2E7104B62001119890059181E20087292
:100D0000487200228A72D7E70A4B620011198900E3
:100D100059181E20087200254D728872CCE7054BC9
:100D20006200111989005918002008721E3048729B
:100D30008872C1E7C80D0020F8520008F0B5DE4601
:100D400057464E464546E0B589B005000C00029274
:100D5000039312AB1B7898466421FFF769FA03B23C
:100D60009B4664212800FFF749FB0EB2090440D4DA
:100D700064212000FFF75CFA03B299466421200049
:100D8000FFF73CFB0CB209043AD4F6B2E4B2642596
:100D9000AB1B9A462D1B180068436421FFF748FAE5
:100DA0000490C7B2280070436421FFF741FA059010
:100DB000C5B2504660436421FFF73AFA0690C3B2C9
:100DC0009A46200070436421FFF732FA0790C6B2BA
:100DD000002F1CD1002D3DD15346002B5BD1002E9E
:100DE00000D079E009B0F0BCBB46B246A946A046A7
:100DF000F0BD643636B25846013803B29B46B7E7B9
:100E0000643424B2494601390BB29946BDE7FF2448
:100E1000049B1C40029860436421FFF709FA049088
:100E2000039B634318006421FFF702FA070043465F
:100E3000634318006421FFF7FBF9FBB26A46127C9A
:100E40004946C9B25C46E4B2C0B20090200001F04D
:100E50003BF8BFE7FF27059B1F40029878436421BA
:100E6000FFF7E6F90500039878436421FFF7E0F9FE
:100E70000400404678436421FFF7DAF9E3B2EAB2AE
:100E80004946C9B25C46651CEDB2C0B2009028006C
:100E900001F01AF8A0E7FF27069B1F40029878434D
:100EA0006421FFF7C5F90400039878436421FFF734
:100EB000BFF90500404678436421FFF7B9F9EBB26A
:100EC000E2B249460131C9B25C46E7B2C0B2009015
:100ED000380000F0F9FF82E7FF26079B1E400298CA
:100EE00070436421FFF7A4F9040003987043642160
:100EF000FFF79EF90500404670436421FFF798F91B
:100F0000EBB2E2B249460131C9B25E460136F6B2F1
:100F1000C0B20090300000F0D7FF63E770B5114C0D
:100F20006423238063800C26A680523BE38000204C
:100F3000FFF7AEFEC8235B00A381C825E581A13B76
:100F4000FF3B238266820120FFF7A2FE2583AF23A9
:100F50009B0063830E23A383223BE3830220FFF7DE
:100F600097FE70BDC80D0020F0B5DE4657464E46D0
:100F70004546E0B587B0002426E0B24B0027F75283
:100F80009B196D429D800123002A10DDE12189001B
:100F90008A423EDBAB4B6200121991005B18E122E2
:100FA00092005A804042D8800AE00023ECE7A54B2B
:100FB0006200121991005B1800225A804042D880CA
:100FC000E0B2FFF765FE0134022C25DC9D4862008B
:100FD00011198B00195AC3189D88491909B21219A1
:100FE000960031525A88D888121812B25A800029B5
:100FF000C3DDFA235B009942D7DB924B61000F19E6
:10100000BE00FA277F00F7529B196D429D80012395
:10101000BAE7002BD7D0D3E70025EDE092B2B3B208
:10102000D21A12B26CE089B298B2091A09B27AE007
:1010300063465B1999000023CB53824B6A00521917
:1010400091005B1802229B5E002B0CDBE1229200D8
:1010500093420CDD7B4B6A00521991005B18E12230
:1010600092005A8003E0774B5B1800225A80754A41
:1010700063001B1999008B5E002B0BDBFA225200D8
:1010800093420ADD6F4A63001B199900FA235B0043
:101090008B5202E06B4A00238B526A4B620012199A
:1010A00091005B1802229B5E002B0CDBE122920078
:1010B00093420CDD634B6200121991005B18E12230
:1010C00092005A8003E05F4B5B1800225A80E8B21E
:1010D000FFF7DEFDE0B2FFF7DBFD0134022C00DD9F
:1010E00088E0584B6A0052199100CE5E62001219D6
:1010F0009100CA5E964291DDB3B292B29A1A12B2D0
:101100005049680040198300CB1802201B5E600024
:1011100000198700C9190220095E8B4283DD98B24D
:1011200089B2411A09B2632AD7DC6329D5DC454F5D
:101130006A00944651198A00B9464A440421505E17
:1011400003900620115E049160008046A246C244CE
:1011500050468100059749440427C85F90800627C0
:10116000C85FD080039888800498C880B6B2B34620
:101170009688B146B600B246D1444E46B6B2B146A4
:1011800066467619B600D9444846059FF0539BB28F
:101190009946D3889E00B24653449BB24B44538039
:1011A00043461A199300DB5B6A46908982008018D7
:1011B00080B24246121992001B18D3534A886B46DC
:1011C0001B8A98001B189BB2D3184B8063465B198F
:1011D0009A00D35F002B00DA2AE7FA2252009342EA
:1011E00000DC2AE7174A6B005B199900FA235B00C1
:1011F0008B5222E7029E3500022D03DC6E1C340068
:1012000002966BE700F0ACFE0026022E11DC0D4DBD
:10121000700083199C002C19637A227A0227E15FFF
:1012200080198700785FA47A0094FFF787FD013664
:10123000EBE700F079FE07B0F0BCBB46B246A9462A
:10124000A046F0BDC80D00200022032A06DC0A4B90
:10125000D1005B18002199710132F6E7002208E005
:10126000054B9100891848001B182933002119707B
:101270000132072AF4DD7047C80D0020F0B583B0B5
:1012800003F016F86421FFF7B9F8032917DD0024ED
:1012900069E003F00DF80621FFF7B0F8964BE40083
:1012A00019551C19E1239B00638003F001F80C2100
:1012B000FFF7A4F81231A1800123A371E7E700240E
:1012C000032CE4DC8C4BE2009B189B79002BE0D0D4
:1012D0000134F5E702F0ECFF0A21FFF78FF80C313B
:1012E00009B2854FAB005B195B00FF18B98402F0AF
:1012F000DFFF0F21FFF782F80F31F98402F0D8FFEA
:101300001421FFF77BF82831283739700136013571
:10131000072D27DC012E25DC774BAA00521952003D
:101320009B1829331B78002BF1D1734AAB005B1952
:101330005B00D3181900293101200870E10089569B
:1013400089B264224A431A8400225A84002EC1D1F1
:1013500002F0AEFF0A21FFF751F80C235B42591A45
:1013600009B2BEE70134032C16DC634BE2009B1884
:101370009B79002BF6D0604B9B185A889988521A9B
:1013800012B25A80002AEDDC5B4BE2009B1800226F
:101390009A7100250026BBE700230BE0564A9C000B
:1013A000E418640012192932002414702AE000287D
:1013B00036DD0133072B42DC4F4A9900C91849003A
:1013C000521829321278002AF3D04B4A9900C918D2
:1013D00049005218118C958C491989B21184508C8E
:1013E000D48C001900B25084053CD484283214787F
:1013F000052CD3D9404A9E00F6187600921928325F
:10140000053C1470013989B2F92252009142CED9BB
:10141000394A9900C918490052186D429584C6E7A7
:10142000354A9900C9184900521800215184D184C5
:101430002421505EC10F091849109184B9E700F0CA
:101440008FFD002400E00134072C1CDC2A4BA20095
:10145000121952009B1829331B78002BF3D0264D0C
:10146000AD182B0028331E78770803213000FEF7D3
:1014700055FEC2B22223E95E2023E85E00963B00BF
:10148000FFF75CFCDFE7002400E00134032C2FDCD5
:10149000194BE2009B189B79002BF6D0164D1600D5
:1014A000AB180220185E6421FEF7C2FE47B2765DDB
:1014B000C5B22D2300931E3B00222900300000F00E
:1014C00003FD082FE1DC691CC9B2142300930F3B14
:1014D0000022300000F0F8FC072FD6DC0235E9B21C
:1014E00005230093043B0022300000F0EDFCCCE724
:1014F00000F01AFD03B0F0BDC80D0020F0B5C646DF
:1015000000B582B000F02CFD002518E00134052C58
:1015100014DC2E4B6A00521951005B181B5D002B26
:10152000F4D02B495A00D3185A5CC9184B788E78DE
:10153000E9B2E0B2009600F0C7FCE7E70135092DFB
:1015400001DC0024E3E7214A3C23D3563D215056D9
:1015500020499A0012185200565ADBB20133DBB20E
:101560009846002529E00134032C25DCA2005219FD
:101570000F239B1A32001A411300DB07F3D5134BDC
:101580003E229856401901329956091B0528EAD87F
:101590000029E8DB0929E6DC0D4B424652004244B3
:1015A000D75C9B185A789B78C9B2C0B200931300DD
:1015B0003A0000F089FCD6E70135032D01DC002458
:1015C000D2E702B080BCB846F0BDC046C80D0020CE
:1015D0004853000810530008F0B583B01B4B3C245F
:1015E0001B571B4C9B009B185B001E5B002521E0DA
:1015F0000133032B1DDC9C0064190F22121B3400E5
:1016000014412200D207F3D54719CA1A052F18D85A
:10161000002A18DB092AEBDC0C4C01945400A44688
:1016200062445200019CA418E25D002AE0D001202F
:1016300005E00135032D01DC0023DAE7002003B0CB
:10164000F0BD0120FBE70120F9E7C046C80D0020EE
:1016500010530008F0B5D6464F464646C0B594B084
:101660007D4B3E229B5601930023994600937B4B72
:101670009846DDE0784A41000C1864001219D45CE9
:101680000918490005AA5218D45401335BB2052B3E
:10169000F0DD013040B2092801DC0023F7E76E4B92
:1016A0003C229B566E4A9B004B445B009C5A002098
:1016B00022E001335BB2032B1CDC990041180F229E
:1016C000521A210011410A00D207F2D53218D5B2C0
:1016D00052B2F91A49B2052DEBD80029E9DB0929E4
:1016E000E7DC4D006918490005ADAC4661440125B1
:1016F0008D54DEE7013040B2032801DC0023DAE735
:101700000027002027E0013A52B2002A09DB5300EB
:101710009B185B0005A98C466344DB5D002BF2D06F
:1017200001E0012252423C00531C03A9CB55002387
:1017300001E001335BB29A420BDD5900C918490040
:1017400005ADAC466144095D0029F2D1013000B21B
:10175000EFE701377FB2052F01DC0922D5E700242E
:1017600000239A46002701E0013464B2052C14DC02
:1017700003AB1B579AB2D7193FB2002CF4DDDBB292
:10178000621E03ADAA5C9B1A5BB2DA179B1853402A
:10179000DBB253441BB29A46E6E70024002506E07C
:1017A0000122002A01D001352DB2013464B2092C86
:1017B0000EDC0023052BF3DC62001219520005A990
:1017C0008C466244D25C002AEBD001335BB2F1E775
:1017D0006A00D21B8300C31A5B009BB292009B1865
:1017E0009BB25246510089B25B1A1BB2984503DA8C
:1017F00001964A4600929846013676B2082E13DCCE
:101800004A460A213000FFF7E7FE0028F4D10A24F7
:10181000E7B27C1E64B24A4621003000FFF7DCFECE
:101820000028F5D0002036E74C46013463B29946D3
:101830004B46032B02DC03267642DFE7064B4122B0
:1018400000999954013A0199995414B0E0BCBA46F0
:10185000B146A846F0BDC046C80D00200083FFFF7A
:1018600010530008F0B51B4B3C229D56013299568F
:10187000194AAB005B185B009C5A002024E001333E
:10188000032B20DC990009180F22521A2100114164
:101890000A00D207F3D50F4A3E21565636180131B9
:1018A0005256D21A092AEAD8002EE8DB052EE6DCC9
:1018B000E9B201318C4607495700BA185700C919D7
:1018C00062468A55DBE70130032801DC0023D7E7B5
:1018D000F0BDC046C80D00201053000870B50025AB
:1018E00003E00123002B23D10135092D2EDC00213B
:1018F0000529F6DC164B6A00521950001B185B5C78
:10190000002BEFD00131F3E7611C114B4800401868
:10191000410059188E5C6100091948001B189E543B
:101920000132052AF0DD0134082C03DC0022F8E73F
:101930002C00F9E7002205E0054B9B183633002107
:1019400019700132052AF7DD013DCDE770BDC046B3
:10195000C80D002010B5194B3F2264219954002472
:1019600011E0164B6200121950001B1807225A543E
:1019700001310529F5DDFFF7C1FD00F0D5FA322070
:1019800000F088FF0134092C01DC0021F1E7FA2086
:10199000400000F07FFF00240AE0084B62001219AB
:1019A00050001B1800225A5401310529F5DD01347D
:1019B000092C01DC0021F8E710BDC046C80D00204D
:1019C00070B502F075FC0721FEF718FD154C3C239D
:1019D000E1543D260023A3553E25023363553D3394
:1019E0000A22E254FFF736FEA25760570921FFF79B
:1019F000F3FD002800D170BDFFF7ACFF02F058FCEA
:101A00000721FEF7FBFC074B3C22995401320021D1
:101A10009954013202319954013208319954FFF737
:101A200019FEE8E7C80D002070B5294B3D229D56F0
:101A300004329B569D4219D06A1CD3179B0FD218B3
:101A400003241440E41A64B2214B3F229956013A10
:101A500098562200FFF7C0FD002803D11C4B3D2201
:101A60009C5470BD1A4B41229D54FAE7184B3E22FC
:101A70009C5602329B569C4213DAE6B2013676B28D
:101A8000134B013A99562A003000FFF7A5FD0028B4
:101A900003D10F4B3E229E54E3E70D4B40229C5452
:101AA000DFE79C42DDDDE6B2013E76B2084B3F2225
:101AB00099562A003000FFF78FFD002803D1044B10
:101AC0003E229E54CDE7024B40229C54C9E7C046BB
:101AD000C80D002010B5194B18780130C0B218702D
:101AE0000321FEF7A1FBC9B200291CD0134B1B78C0
:101AF000042B13D9114B00221A70114B3F329C5CFE
:101B0000013C64B2023A9A563E2158562100FFF732
:101B100063FD00280AD10A4B3F229C54FFF7EEFCDC
:101B200000F002FA10BDFFF77FFFDFE7FFF79AFE34
:101B3000FFF7D4FEFFF744FFF0E7C0468D0000201A
:101B4000C80D002070B5002415E00132144B782038
:101B50001B5C93420EDD124B5000C05679255B573B
:101B60009842F2D10E4B50001B185B785BB2994241
:101B7000EBD100E00124002C11D102F099FB0621E9
:101B8000FEF73CFC064D7923E95402F091FB0A2153
:101B9000FEF734FC49B27A23E9540022D6E770BD3F
:101BA000C80D002010B50A4B032278215A541A7030
:101BB00002325A7076399970DA70013919715A7196
:101BC00076329954013200219954FFF7BBFF10BDC2
:101BD000C80D002010B5C3B2052B1BD800291BDB94
:101BE00009291BDC002300E001330D4A7824125D33
:101BF000013A9A420CDD0A4A5C00A2568242F3D1B5
:101C0000074A1219527852B28A42EDD1002002E0FE
:101C1000012000E0002010BD0020FCE70020FAE7D2
:101C2000C80D0020F0B5C64600B584B03D4B1A88FB
:101C300003AB1A803C4B02933C4B019300253C4B79
:101C400098460126764208E001AA5157354A7C2081
:101C50001256524291420AD10135032D2ADC02ABC1
:101C60005B57304A7B21525652429342ECD003AA32
:101C70001178DBB2CB185FB2547801AB5B5DE4182E
:101C800064B221003800FFF7A5FF0028E4D0254BFF
:101C900079229856C01BC217801850407A229B5652
:101CA0001B1BDA179B185340C0188045D4DD8046B3
:101CB0002E00D1E7731C2ED002AB9957194B7B2213
:101CC000995401AA91577C22995404B080BCB8461B
:101CD000F0BD03AA1078DBB2C018517801AB1B5DD0
:101CE000C91849B240B2FFF775FF002815D1013479
:101CF000032C13DC02AB1B570A4A7B21525652427B
:101D00009342E6D101AA1157064A7C20125652424C
:101D10009142DED1EBE70024EAE72600731CCBD129
:101D2000D3E7C046C80D00200000FF0101FF0000FE
:101D3000E703000070B582B0002614E0E9B2E0B21B
:101D4000002300931E2200F0BFF80134052CF5DDBE
:101D50000135092D01DC0024F8E700F0E5F86420E6
:101D600000F098FD0136022E08DC00F0F9F800F0D2
:101D7000DBF8642000F08EFD0025EAE7FFF712FF94
:101D800002B070BD70B582B0FFF74CFF324B1D78CA
:101D90007B229A5CAD186DB25E787C229B5CF61853
:101DA00076B231002800FFF715FF002809D02A4B32
:101DB00079229B56AB4207D0274B78229B5C013B94
:101DC0001AE0FFF7B7FF45E0234B01329B56B342C1
:101DD000F2D1214B023A9B5C3B2B03D81E4A0133C4
:101DE00078215354FFF7AEFEE6E75C1E1A4A5B000B
:101DF0006100895A99522300002BF6DC164C25709D
:101E0000667000F0ADF87A23E15C013BE05C513B89
:101E100000930023002200F057F801240BE00E4B42
:101E2000620099184978D05C002300931E33002289
:101E300000F04AF80134084B78229B5CA342EEDCA8
:101E4000054B5978187800230093503A00F03CF87D
:101E500000F06AF802B070BDC80D002010B5002473
:101E60000AE0094B6200121950001B1800225A5454
:101E700001310529F5DD0134092C01DC0021F8E7E9
:101E8000FFF79EFD10BDC046C80D002010B50268CA
:101E9000044B9A4200D010BD0348042102F01AF905
:101EA000F9E7C046002C0140400D0020CB0706D4C6
:101EB0004B00C9184900081A053080B270474B0022
:101EC000C91849004018F9E770B515001C0004ABAB
:101ED0001E78052825D8092923D8FFF7E7FF240411
:101EE0002D022C43264317210AE043001B18DB0078
:101EF0001724641A1B190B4C5B0013251D53013961
:101F000000290EDB01238B403342EED043001B1827
:101F1000DB001724641A1B19024C5B0026251D5395
:101F2000EDE770BD9000002010B5B423DB0005E0A4
:101F3000074A59000020885201339BB2054A934258
:101F4000F6D9034A0448054B042101F0A7FF10BD50
:101F50009000002035060000400D002036060000ED
:101F600030B583B000250CE0002300930022290047
:101F70002000FFF7A9FF0134E4B2052CF4D90135A4
:101F8000EDB2092D01D80024F7E703B030BD000001
:101F900030B589B01422002103A802F0D7FA174BFC
:101FA0005A698021C9030A435A615A690A40019259
:101FB000019A5A69802189020A435A615B690B4080
:101FC0000293029B9025ED0500225821280001F084
:101FD000E6F858230393573B049300240594069492
:101FE00003A9280001F010F88023039304940594BA
:101FF00003A9280001F008F809B030BD0010024024
:1020000000B583B0094A51690123194351615269EE
:1020100013400193019B002200210A2000F0DAFE08
:102020000A2000F0DBFE03B000BDC04600100240F5
:1020300072B6FEE700B585B00C22002101A802F0BF
:1020400085FA1748174B0360002343608360C36021
:102050000122026104214161037643768376C376CF
:10206000C221FF31C16103629E39FF39435482624C
:1020700000F07AFC00280ED10123019380235B013C
:10208000029307230393064801A900F0C7FD002827
:1020900003D105B000BDFFF7CBFFFFF7C9FFC04676
:1020A000880D00200024014000B597B010220021C7
:1020B00012A802F04BFA0822002110A802F046FAFA
:1020C0001C22002109A802F041FA2022002101A8C7
:1020D00002F03CFA2B482C4B0360002343608360E2
:1020E0003B22C26003614361836101F02DFD002842
:1020F0003BD180235B011293224812A901F03CFEE0
:10210000002834D11F4801F04BFD002831D10023B5
:10211000109311931B4810A902F066F800282AD1E9
:102120006023099300230A930B930C930D930E9352
:102130000F931448042209A901F09AFD00281CD12C
:102140000023019302930393049305938022920149
:10215000069208930B4801A902F074F800280ED1EA
:10216000084800F0D7F817B000BDFFF761FFFFF790
:102170005FFFFFF75DFFFFF75BFFFFF759FFFFF71B
:1021800057FFC046400D0020002C014000B591B023
:102190003022002104A802F0D9F91022002168465B
:1021A00002F0D4F911230493103B059309930F33E4
:1021B0000A930E3B0C9380235B020D9380235B03F9
:1021C0000E9304A800F0F2FF00280ED1072300931D
:1021D000053B01930023029303930121684601F01C
:1021E00069FA002803D111B000BDFFF721FFFFF706
:1021F0001FFF10B500F02CFBFFF7C8FFFFF7C8FE6C
:10220000FFF7FEFEFFF716FFFFF74EFF00F01AF98B
:1022100000F050F9FCE7000082B00A4B99690122F6
:102220001143996199690A400092009ADA69802104
:1022300049050A43DA61DB690B400193019B02B057
:102240007047C0460010024010B588B00400142248
:10225000002103A802F07AF92268114B9A4201D0BA
:1022600008B010BD0F4B9A69802189000A439A611A
:102270009A690A400192019A5A69802189020A43A7
:102280005A615B690B400293029B02230393013363
:102290000493902003A9C00500F0B6FEE0E7C04615
:1022A000002401400010024010B582B00400026812
:1022B000144B9A4201D002B010BD134B9A69802191
:1022C00009010A439A619B690B400193019B0F48E6
:1022D0000F4B036010234360002383608022C260A1
:1022E000803202618022D20042618361C36100F0CA
:1022F000ADFD002803D1054BA3625C62DBE7FFF76D
:1023000097FEF8E7002C014000100240FC0C002072
:102310003000024010B586B004001422002101A84C
:1023200002F014F922680E4B9A4201D006B010BD9B
:102330000C4B5A69802189020A435A615B690B4040
:102340000093009B80239B000193FF3BFF3B029384
:102350000593902001A9C00500F056FEE6E7C046AF
:10236000002C014000100240FEE7FEE77047704776
:1023700010B500F07DFA10BD10B5024800F0EEFD7A
:1023800010BDC046FC0C00200120704710B502F0C3
:1023900033F9162303600120404210BD10B501211E
:1023A0004942FFF7F3FFFEE770B50C001600002569
:1023B00004E000E000BF207001350134B542F8DBD5
:1023C000300070BD70B51600002405E04D1C087883
:1023D00000E000BF01342900B442F7DB300070BDDB
:1023E00001204042704780239B014B6000207047D2
:1023F000012070470020704710B503000C4A0D49BA
:10240000521A0D490968002907D00B490868C318FA
:10241000934206D8084A136010BD07490748086070
:10242000F3E702F0E9F80C23036001204042F3E7F0
:102430000018002000040000480E0020B80F002003
:102440007047000010B5FEF769FD00F01DFA174B4C
:10245000186000F019FA164B186090208021C00512
:1024600000F096FE002811D190208021C00500F0D8
:102470008FFE00280ED190208021C00500F088FE3C
:102480000028F8D1C83000F005FA10BDC82000F0CF
:1024900001FAE9E7902001224021C00500F07FFE0B
:1024A000FDF7E0FFFFF740FDE5E7C0465C0E0020CA
:1024B000580E002070B500F0E7F90400902080214C
:1024C000C00500F065FE05000300012826D0002BA2
:1024D00003D19E4B1B78012B39D09C4B1D709C4B1C
:1024E0001B68E31AFA225200934200D370E0994B22
:1024F0001B78002B06D0984B1B68E31A974A93422F
:1025000000D983E0964B1B78002B00D0BEE0954BA2
:102510001B68E31A1D2B00D9B3E070BD8B4A1278FB
:10252000002A02D1904B1C60D7E7012ACFD18E4BF5
:102530001B68E31AFA2292009342CED9FEF7B0F854
:10254000902000224021C00500F029FEFEE7864BC6
:102550001B68E31A333B854A9342BED8FEF782F8E4
:102560007F4A13780133DBB21370082B02D91300B2
:1025700000221A707A4B1B78002B17D0784B1B78EF
:10258000012B16D0764B1B78022B15D0744B1B7881
:10259000052B14D0724B1B78062B13D0704B1B7875
:1025A000082B12D06B4B00221A7096E7FEF7B6FC90
:1025B000E4E7FFF753FCE5E7FFF7F4FAE6E7FEF799
:1025C000D1F9E7E7FEF750FAE8E7FEF73DFEE9E765
:1025D0005F4B1C60664D280000F088FA052128003A
:1025E00000F0B4FA002800D081E7614800F012FB47
:1025F00080B2604B984200D979E7FEF751F89020FD
:1026000000224021C00500F0CAFDFEE7FEF72AF8CF
:10261000534A13780133DBB21370082B02D913002D
:1026200000221A704E4B1B78002B18D04C4B1B7895
:10263000012B17D04A4B1B78022B16D0484B1B7826
:10264000052B15D0464B1B78062B14D0444B1B781A
:10265000082B13D000F018F93F4B186052E7FEF733
:102660005DFCE3E7FFF7FAFBE4E7FFF79BFAE5E73A
:10267000FEF778F9E6E7FEF7F7F9E7E7FEF7E4FD9E
:10268000E8E7FEF771FC374B1C6046E7082B00D9E2
:1026900043E79B00384AD3589F46324B1B68E31AE6
:1026A000312B00D839E7FFF715FA2E4B1C6034E7C1
:1026B0002C4B1B68E31ADB2B00D82EE7FFF762FBDD
:1026C000284B1C6029E7274B1B68E31A1D2B00D8F9
:1026D00023E7FDF7A9FF234B1C601EE7214B1B6876
:1026E000E31A3B2B00D818E7FEF794F81D4B1C604B
:1026F00013E71C4B1B68E31A4F2B00D80DE7FEF7BE
:102700004BF9184B1C6008E7164B1B68E31A272B84
:1027100000D802E7FEF7C0F9124B1C60FDE6114B32
:102720001B68E31A1D2B00D8F7E6FEF777FA0D4B6E
:102730001C60F2E60B4B1B68E31A1D2B00D8ECE67D
:10274000FEF79CFD074B1C60E7E6C046500E0020DC
:102750004C0E00200C0000205C0E0020C7AF0000D3
:10276000600E0020580E0020540E0020B50300001B
:10277000880D00208B0A000070530008134885461E
:10278000FFF75EFE12480168090E124A914205D118
:102790001148124901601248124901601248134958
:1027A000134A002302E0D458C4500433C4188C42A6
:1027B000F9D3104A104C002301E013600432A24206
:1027C000FBD301F01FFFFFF714FDFEE70018002008
:1027D000040000001F00000018100240010000006B
:1027E00000000140000000000000002070000020F8
:1027F0009C54000870000020B40F0020FEE7000089
:1028000010B504000F4B1978FA208000FDF786FC04
:1028100001000D4B1868FDF781FC00F0EBFA002871
:102820000DD1032C01D901200AE001300022210042
:10283000404200F0CFFA054B1C60002000E0012070
:1028400010BDC0460D000020080000201000002030
:1028500010B5064A136810210B4313600320FFF7DD
:10286000CFFFFFF7D9FC002010BDC046002002407A
:10287000034A1168034B1B785B1813607047C0460E
:10288000640E00200D000020014B18687047C04600
:10289000640E002070B50400FFF7F6FF0500631C0E
:1028A00002D0044B1B78E418FFF7EEFF401BA04258
:1028B000FAD370BD0D00002030B583B004000023B2
:1028C00001930368996803220A40012A14D0996889
:1028D000224A114218D19A6801210A439A60204B7A
:1028E00018682049FDF71AFC0190019B002B15D0B8
:1028F000019B013B0193F8E71A68D2072BD4DA68F1
:102900001204E4D5002024E0A36B10221343A36338
:10291000E36B0F3A1343E36301201AE0FFF7B4FFC0
:10292000050023681B68DB0712D4FFF7ADFF401BCF
:102930000228F6D923681B68DB07F2D4A36B1022A8
:102940001343A363E36B0F3A1343E363012000E0F7
:10295000002003B030BD0020FBE7C0461700008018
:102960000800002040420F0070B5041E00D1B4E002
:10297000836B002B00D180E0A36BDB0600D5A6E0C3
:1029800023689A68042108001040114200D09EE09C
:10299000A26B53490A400631FF310A43A26399688A
:1029A00003220A40012A6ED0DA6818218A43A168FE
:1029B0000A43DA60226813699B009B0861680B4335
:1029C00013612268D36847490B40D360237E9B0381
:1029D000627ED2031343A17E4A031343A26A012AF3
:1029E00058D0802252011343E26813432269022A1D
:1029F00052D003432422A25C52001343E27E012AF8
:102A00004CD0E269C221FF318A4202D0216A0A43D6
:102A100013432168CA681A43CA60E26A80214905E3
:102A20008A420DD0012A0BD0022A09D0032A07D0EE
:102A3000042A05D0052A03D0062A01D0072A0AD184
:102A40002068416907229143416120684169E56A34
:102A50002A400A4342612268D26823490A409A42C6
:102A60002BD0A36B12229343023A1343A363E36B6D
:102A70000F3A1343E36301202EE0C36334228354EF
:102A8000FFF7E2FB78E71A68D2079AD4DA681204F3
:102A900097D489E70200A6E70420AAE7002903D11A
:102AA000802252021343ACE7A26B20210A43A263A7
:102AB000E26B1F390A43E263A3E70023E363A36BDE
:102AC00003229343023A1343A363002004E0A36B61
:102AD00010221343A363012070BD0120FCE7C04610
:102AE000FDFEFFFF1902FEFFE7FF3F8310B5040064
:102AF00003689B685B0723D43423C35C012B21D07C
:102B000034230122C254437E012B14D10020A26B36
:102B10000D4B1A4080235B001343A3630023E36340
:102B20003422A3542368183A1A6022689368042157
:102B30000B43936010BDFFF7BFFE0028FAD1E6E714
:102B40000220F7E70220F5E7FEF0FFFFF8B50400EA
:102B50000E004769082F04D00368DB68DB0718D430
:102B60000C27FFF791FE050023681A6817421FD152
:102B7000731CF9D0002E15D123681B681F42F3D1B6
:102B8000A36B04221343A36334230022E2540320E3
:102B900032E0836B20221343836334230022C25428
:102BA000012029E0FFF770FE401BB042DCD9E3E7CB
:102BB000A16B802292000A43A263D968C02212014D
:102BC000114213D1A27E002A10D11A6812070DD526
:102BD0009A68520711D45A680C218A435A60A36B31
:102BE0000B4A13400432FF321343A363207E0028B4
:102BF0000CD123680C221A60F8BDA36B202213436A
:102C0000A363E36B1F3A1343E363EFE70020F3E7AB
:102C1000FEFEFFFF0368186C7047000030B583B0FC
:102C20000400002301933433C35C012B00D176E010
:102C300034230122C254026893685B0765D4486854
:102C4000384B984248D0936A0D680120A84003434E
:102C50009362E36A80225205934213D0013B062B14
:102C600010D988682268556907232B40984209D0FB
:102C70005069072398435061206842698D682B4052
:102C8000134343610B681A00103A012A01D900204E
:102C900040E0254A1268102B09D08023DB03134340
:102CA000214A13600B68102B04D0002032E08023EF
:102CB0001B04F4E71D4B18681D49FDF72FFA83002C
:102CC0001B185B00019302E0019B013B0193019BF8
:102CD000002BF9D100201DE0936A0D680120A84067
:102CE000834393620B681A00103A012A01D900202D
:102CF00010E00D4A1268102B05D00E4B13400A4A03
:102D00001360002006E00C4BF8E7836B202213438E
:102D10008363012034230022E25403B030BD02203B
:102D2000FBE7C04601100000082701400800002012
:102D300040420F00FFFFBFFFFFFF7FFF70B500287D
:102D400011DB8308134DC0339B005C5903221040F4
:102D5000C000FC3216008640B44389010A4082401C
:102D600022435A5170BD0F230340083B9B08063392
:102D70009B00094A944663445C6803221040C000EB
:102D8000FC3215008540AC4389010A408240224351
:102D90005A60E7E700E100E000ED00E00138802341
:102DA0005B0498420FD2094A50600948036A1B022B
:102DB0001B0AC02109060B430362002393600733FB
:102DC0001360002070470120FCE7C04610E000E0DF
:102DD00000ED00E010B5FFF7B1FF10BD002805DBE6
:102DE0001F22024001239340014A13607047C046EE
:102DF00000E100E010B5FFF7D1FF10BD70B5066C23
:102E0000C56B0124B4406C60046863604368102B98
:102E100004D0036899600368DA6070BD03689A6043
:102E20000368D960F9E7000010B504000068054B9D
:102E30009C4660441421FDF771F980002064024B28
:102E4000E36310BDF8FFFDBF0000024070B5041E33
:102E500020D021250223435501680A680E4B1A40F1
:102E6000436880680343E068034320690343606963
:102E70000343A0690343E069034313430B6020004D
:102E8000FFF7D2FF0023A363012262551F32A35430
:102E9000002070BD0120FCE70FC0FFFF70B50400EB
:102EA0002020205C012832D020200125255401302B
:102EB000205C012804D020230022E254022070BDAF
:102EC0002030013525540020A0632568286801269C
:102ED000B04328602000FFF791FFE36A002B0BD07E
:102EE000226813680E210B431360226813680121C6
:102EF0000B4313600020E2E7226813680A210B43AA
:102F000013602268136806398B431360EDE70220D3
:102F1000D5E710B52123C35C022B03D004238363C0
:102F2000012010BD026813680E218B4313600168F5
:102F30000A6801239A430A60016CC26B1C008C4032
:102F40005460212283541F330022C254436B002B50
:102F500002D098470020E4E70020E2E770B5C36B99
:102F60001A6804682568016C04238B401A4212D049
:102F70006B0710D523689B0603D423680422934370
:102F80002360016CC26B04238B405360C36A002B27
:102F900000D0984770BD02238B401A4218D0AB076F
:102FA00016D523689B0606D423680A229343236020
:102FB0002123093AC254016CC26B02238B40536037
:102FC00020230022C254836A002BE3D09847E1E714
:102FD00008238B401A42DDD02D07DBD523680E2253
:102FE00093432360016CC26B01231C008C4054602E
:102FF0008363212283541F330022C254036B002BAE
:10300000C8D09847C6E70000F0B583B0002356E06B
:1030100086685F000324BC40A643CC68BC403443B0
:103020008460446894434E683609012232409A40D5
:103030002243426053E0DE080836B60037580532B6
:103040001A4092000F249440A7430C699440220038
:103050003A43325056E0032600E00026A6403400F2
:103060003C4302329200444E9451444A9768EA43EA
:103070003E00AE434C68E40201D53E002E433F4C77
:10308000A660E7683E0016404C68A40201D53E00E9
:103090002E433A4CE66067683E0016404C68A40335
:1030A00001D53E002E43354C6660266832404C68A0
:1030B000E40301D52A003243304C226001330C680E
:1030C0002200DA4056D001229A40250015401442D1
:1030D000F4D04E6803243440013C012C98D94C684C
:1030E00003222240032A08D0C4685E000322B240B3
:1030F00094438A68B2402243C2604C680322224053
:10310000022A98D004685E0003221700B740BC432F
:103110004F683A40B240224302604C68C02292029B
:103120001442CBD0164CA66901221643A661A469AD
:1031300022400192019A9A08941CA4000E4EA759AD
:1031400003241C40A4000F26A640B7439026F60592
:10315000B04282D00B4EB04208D00B4EB04207D0E6
:103160000A4EB04200D176E7052677E7012675E7DB
:10317000022673E703B0F0BD0000014000040140E7
:10318000001002400004004800080048000C0048FD
:1031900003690B4201D0012070470020FCE7002AA0
:1031A00001D0816170478162FCE7000070B582B098
:1031B000041E00D138E20368DB072BD5B34B5A68F5
:1031C0000C231340042B1DD0B04B5A680C23134022
:1031D000082B0ED06368012B41D0002B56D1AB4B8E
:1031E0001A68AB490A401A601A68AA490A401A606C
:1031F0003BE0A64B5B68C022520213408022520281
:103200009342E7D1A14B1B689B0303D56368002B56
:1032100000D10CE223689B0777D59C4B5B680C229E
:103220001A4262D0994B5A680C231340082B53D092
:10323000E368002B00D18AE0944A136801210B4314
:103240001360FFF721FB0500904B1B689B0775D4AB
:10325000FFF71AFB401B0228F6D90320E5E18B4A51
:10326000116880235B020B4313606368002B25D039
:10327000FFF70AFB0500854B1B689B03CAD4FFF7C9
:1032800003FB401B6428F6D90320CEE1052B09D0AF
:103290007E4B1A687E490A401A601A687D490A40C6
:1032A0001A60E2E7794B19688022D2020A431A6059
:1032B0001968802252020A431A60D6E7FFF7E4FA3F
:1032C0000500724B1B689B03A4D5FFF7DDFA401B7A
:1032D0006428F6D90320A8E16C4B5B68C022520237
:1032E0001340802212029342A2D1684B1B689B07B5
:1032F00003D5E368012B00D09BE164490B68F822F9
:1033000093432269D20013430B6023681B0744D503
:10331000E369002B2ED05D4A536A01210B435362AF
:10332000FFF7B2FA0500594B5B6A9B0735D4FFF7EC
:10333000ABFA401B0228F6D9032076E153490B680B
:10334000F82293432269D20013430B60DDE74F4A12
:10335000136801218B431360FFF796FA05004B4B6E
:103360001B689B07D1D5FFF78FFA401B0228F6D9BF
:1033700003205AE1454A536A01218B435362FFF708
:1033800083FA0500414B5B6A9B0706D5FFF77CFA81
:10339000401B0228F6D9032047E123685B0700D4CD
:1033A00080E03A4BDB69DB001DD4384BDA698021C1
:1033B00049050A43DA61DB690B400193019B012552
:1033C000354B1B68DB0510D5A368012B21D0002BE2
:1033D00036D12E4B1A6A01218A431A621A6A0331C6
:1033E0008A431A621AE00025EAE72B4A1168802313
:1033F0005B000B431360FFF747FA0600264B1B6880
:10340000DB05E1D4FFF740FA801B6428F6D90320DE
:103410000BE11E4A136A01210B431362A368002BC0
:1034200024D0FFF731FA0600184B1B6A9B0737D4EC
:10343000FFF72AFA801B194B9842F5D90320F4E0D4
:10344000052B09D0114B1A6A01218A431A621A6AA4
:1034500003318A431A62E1E70C4B1A6A04210A43DA
:103460001A621A6A03390A431A62D7E7FFF70CFA9D
:103470000600064B1B6A9B0712D5FFF705FA801B57
:10348000064B9842F5D90320CFE0C0460010024019
:10349000FFFFFEFFFFFFFBFF0070004088130000EE
:1034A000012D33D02368DB0610D56369012B33D09F
:1034B000053351D1654A536B04218B435363536BDE
:1034C000F4318B43A169C9000B435363236A002B7A
:1034D00000D1B0E05D4A51680C220A40082A00D1B0
:1034E0008AE0022B4FD0594A136859490B401360A8
:1034F000FFF7CAF90400554B1B689B017AD5FFF70B
:10350000C3F9001B0228F6D903208EE04F4AD36985
:1035100050490B40D361C5E74C4B5A6B04210A4319
:103520005A635A6B03390A435A63FFF7ADF9050032
:10353000464B5B6B9B0706D4FFF7A6F9401B02289E
:10354000F6D9032071E041494B6BF8229343A269FD
:10355000D20013434B63B9E73C4B5A6B04210A4337
:103560005A635A6B03398A435A63FFF78DF9050092
:10357000364B5B6B9B07A9D5FFF786F9401B0228EA
:10358000F6D9032051E0314A136831490B401360EA
:10359000FFF77AF905002D4B1B689B0106D5FFF755
:1035A00073F9401B0228F6D903203EE0274BDA6A64
:1035B0000F218A43E16A0A43DA625A6826490A40BF
:1035C000A16A606A01430A435A6019688022520462
:1035D0000A431A60FFF758F904001C4B1B689B0153
:1035E00006D4FFF751F9001B0228F6D903201CE08E
:1035F00000201AE0002018E0012B1ED0134B5A685F
:10360000D86AC0235B021340616A8B4217D10F2333
:103610000340E16A8B4214D1F0239B031A40A36A52
:103620009A4210D1002000E0012002B070BD0120BC
:10363000FBE70120F9E70020F7E70120F5E701208B
:10364000F3E70120F1E70120EFE7C0460010024058
:10365000FFFFFFFEFFFFFFEFFF7FC2FF10B5114B23
:103660005A680C231340082B01D00F4810BD910C51
:10367000073319400D48445C0A49C96A0B400C499C
:10368000C95CC0235B021A4080235B029A4204D0CB
:103690000548FCF743FD6043E8E70348FCF73EFDBF
:1036A0006043E3E70010024000127A00A4530008D0
:1036B0009453000870B504000D00002800D17EE08E
:1036C000434B1A68012313408B420AD240490B68CE
:1036D000012293432B430B600B681A40AA4200D08F
:1036E0006FE023689A070ED55B0705D5394A516804
:1036F000E023DB000B435360364A5368F0218B43D1
:10370000A1680B4353602368DB072DD56368012B49
:103710001ED0022B22D02F4A1268920753D52D4972
:103720004A680320824313434B60FFF7ADF806005D
:10373000284B5B680C221A4063689B009A4213D0A6
:10374000FFF7A2F8801B244B9842F1D9032035E003
:10375000204A12689203E2D401202FE01D4A126829
:103760009201DCD4012029E0194B1A68012313408F
:10377000AB4209D916490B68012293432B430B60D6
:103780000B681A40AA4220D123685B0706D5114A6C
:10379000536812490B40E1680B435360FFF75EFF2B
:1037A0000C4B5A6812090F2313400D4AD35CD840C2
:1037B0000C4B18600320FFF723F8002070BD012098
:1037C000FCE70120FAE70120F8E70120F6E7C04610
:1037D000002002400010024088130000FFF8FFFFA5
:1037E000605300080800002030B5056A036A012212
:1037F00093430362426883697324A3430C681C43A8
:1038000002239D438B682B43124DA84205D0124DD5
:10381000A84202D0114DA84206D10825AB431D0095
:10382000CB682B430425AB430A4DA84205D00A4D73
:10383000A84202D0094DA84205D1094D2A404D6940
:1038400015438A692A43426084614A68426303627D
:1038500030BDC046002C01400044014000480140FA
:10386000FFFCFFFF30B5046A036A164A1340036287
:103870004268C3697325AB430D681D43124B1C405E
:103880008B681B022343114CA04206D0104CA0426F
:103890000AD0104CA0420FD106E00F4C1C40CB6860
:1038A0001B0223430D4C23400D4C22404C69240144
:1038B00014438A69120122434260C5614A68C263A7
:1038C000036230BDFFFEFFFFFFFDFFFF002C014044
:1038D0000044014000480140FFF7FFFFFFFBFFFFEE
:1038E000FFCFFFFF30B5046A036A114A1340036239
:1038F0004568C3690F4A13400A6812021A430E4B07
:103900001C408B681B0323430C4CA04205D00C4C7D
:10391000A04202D00B4CA04204D10B4C2C404D696C
:10392000AD0125434560C2614A680264036230BD4F
:10393000FFEFFFFFFF8CFFFFFFDFFFFF002C0140C9
:103940000044014000480140FFBFFFFF30B5036A5B
:10395000046A0125AC4304628469EF35AC4312016B
:1039600022430A24A3430B438261036230BD00005B
:1039700030B5036A046A1025AC4304628469054DBE
:103980002C4012032243A024A3430901194382615E
:10399000016230BDFF0FFFFF8368702293430B432A
:1039A000693A134383607047704710B5446A636A8D
:1039B00083420ED0A36A834214D0E36A83421AD0B2
:1039C000236B834220D02000FEF760FA0023237788
:1039D00010BD012323778369002BF4D13E330122EC
:1039E000E254F0E7022323778369002BEBD13F33C6
:1039F0000122E254E7E7042323778369002BE2D115
:103A000040330122E254DEE7082323778369002B49
:103A1000D9D141330122E254D5E7704710B5446A49
:103A2000636A83420BD0A36A834210D0E36A834265
:103A300010D0236B834204D10823237701E00123B4
:103A400023772000FFF7E9FF0023237710BD02232F
:103A50002377F6E704232377F3E7704710B5446A2A
:103A6000636A83420CD0A36A834213D0E36A834221
:103A700016D0236B834219D03D230122E25403E088
:103A8000012323773E22A3542000FFF7E6FF002303
:103A9000237710BD022323773D330122E254F3E75D
:103AA000042323773C330122E254EDE708232377F4
:103AB00039330122E254E7E703681D4A904202D0FD
:103AC0001C4A904203D1702293434A681343184A18
:103AD00090420BD0174A904208D0174A904205D026
:103AE000164A904202D0164A904203D1154A13401A
:103AF000CA681343802293434A69134303608B6867
:103B0000C3620B6883620A4B984205D00B4B984204
:103B100002D00B4B984201D10B690363012343612F
:103B20000269134203D00369012293430361704782
:103B3000002C0140000400400020004000440140EF
:103B400000480140FFFCFFFF70B5041E26D03D2356
:103B5000C35C002B1CD03D2502236355210001C905
:103B6000FFF7AAFF01234622A354083AA3540132C7
:103B7000A3540132A3540132A3540132A35401329D
:103B8000A3540132A3540132A3546355002070BDE5
:103B90003C330022C254FEF787FBDCE70120F6E746
:103BA00070B5041E26D03D23C35C002B1CD03D25E0
:103BB00002236355210001C9FFF77EFF012346223E
:103BC000A354083AA3540132A3540132A35401323E
:103BD000A3540132A3540132A3540132A35401323D
:103BE000A3546355002070BD3C330022C254FFF73C
:103BF000DBFEDCE70120F6E770B5026A036A1024F9
:103C0000A343036245688369144C23400C68240273
:103C10001C4320239A438B681B011343104A904294
:103C200006D0104A90420BD00F4A904210D107E0C4
:103C3000802293431E00CB681B013343403A9343D9
:103C40000A4A15404A6992002A438D69AD0015431E
:103C5000456084614A688263036270BDFF8CFFFF28
:103C6000002C01400044014000480140FFF3FFFFE9
:103C700070B504000D003C23C35C012B00D16AE049
:103C80003C230121C154082A50D01CD8002A38D026
:103C9000042A16D100682900FFF7AEFF2268916957
:103CA00080231B010B439361226893692B490B40CE
:103CB000936121688B692A69120213438B6100208A
:103CC0001BE0080019E00C2A16D100682900FFF754
:103CD00009FE2268D16980231B010B43D36122684E
:103CE000D3691E490B40D3612168CB692A6912024E
:103CF0001343CB61002000E001203C230022E2546A
:103D000070BD00682900FFF76FFD226893690821E4
:103D10000B4393612268936904398B439361226852
:103D2000936929690B4393610020E6E70068290045
:103D3000FFF798FD2268D36908210B43D3612268FD
:103D4000D36904398B43D3612268D36929690B4352
:103D5000D3610020D1E70220D2E7C046FFFBFFFF7E
:103D600030B58468034D2C401B0213430B4323439F
:103D7000836030BDFF00FFFF10B5040008003C2346
:103D8000E35C012B00D177E03C230122E2540133B4
:103D90000132E2542268936838490B40936001680D
:103DA00060294FD029D8402957D00CD9502922D189
:103DB0004168C2682068FFF7C9FD20685021FFF7FD
:103DC000EBFD002005E020290ED009D930290BD0C9
:103DD00001203D230122E254013B0022E25410BDA8
:103DE000002901D0102904D12068FFF7D5FD00205B
:103DF000EFE70120EDE70120EBE78022520191423D
:103E000036D08022920191420DD181684268C36808
:103E10002068FFF7A5FF226891688023DB010B4330
:103E200093600020D5E7702924D181684268C36877
:103E30002068FFF795FF2268936877210B43936012
:103E40000020C6E74168C2682068FFF791FD20683E
:103E50006021FFF7A1FD0020BBE74168C268206830
:103E6000FFF774FD20684021FFF796FD0020B0E7C2
:103E70000020AEE70120ACE70220B0E78800FFFF9A
:103E800010B51F23194001248C40036AA343036229
:103E9000036A8A401343036210BD000070B5060038
:103EA0000D001100002D58D13E22845C023C62427C
:103EB0005441E4B2002C00D0ECE0002D66D13E224B
:103EC000B25C013A50424241D2B2002A00D1E3E052
:103ED000002900D1E2E0002B00D1E1E0002D6ED1FD
:103EE0003E220220B054726A73489062726A73482C
:103EF000D062726A7248106332683432706AFEF7B8
:103F0000CDFF002800D0CDE03268D16880239B002F
:103F10000B43D360306801222900FFF7B1FF3368FB
:103F2000684A934205D0684A934202D0674A934256
:103F300004D1596C802212020A435A643368614AE0
:103F4000934200D19BE0624A934200D197E01A6805
:103F500001210A431A6000209FE0042D08D0082D9B
:103F60000DD04122845C023C62425441E4B2A1E79C
:103F70003F22845C023C62425441E4B29AE7402210
:103F8000845C023C62425441E4B293E7042D08D0C1
:103F9000082D0DD04122B25C013A50424241D2B2CA
:103FA00093E73F22B25C013A50424241D2B28CE7E1
:103FB0004022B25C013A50424241D2B285E7042D20
:103FC00022D0082D24D041220220B054082D22D026
:103FD0003AD8002D87D0042D34D1B26A3648906289
:103FE000B26A3648D062B26A3548106332683832F5
:103FF000B06AFEF753FF002856D13268D16880239B
:10400000DB000B43D36085E73F220220B054E4E796
:1040100040220220B054F26A27489062F26A274890
:10402000D062F26A2648106332683C32F06AFEF7CA
:1040300035FF00283AD13268D16880231B010B4339
:10404000D36067E7013828E00C2D16D1326B1A488F
:104050009062326B1948D062326B19481063326833
:104060004032306BFEF71AFF002821D13268D16848
:1040700080235B010B43D3604CE701200DE099687E
:1040800007220A40062A15D01A6801210A431A603D
:10409000002002E0022000E0012070BD0120FCE7CA
:1040A0000120FAE70120F8E70120F6E70120F4E714
:1040B0000120F2E70020F0E7AB3900081D3A0008C4
:1040C0005D3A0008002C01400044014000480140D6
:1040D0000004004070B505000C00082947D00ED838
:1040E000002919D0042908D10268D36834490B404B
:1040F000D360806AFEF70DFF16E0012036E00C2940
:1041000008D10268D3682F490B40D360006BFEF7DB
:1041100000FF09E0012029E00268D3682A490B402A
:10412000D360406AFEF7F5FE286800222100FFF701
:10413000A7FE2B68254A934222D0254A93421FD0DE
:10414000244A93421CD02B68196A234A114207D192
:10415000196A224A114203D11A6801218A431A605E
:10416000002C1AD13E230122EA54002070BD0268BF
:10417000D3681B490B40D360C06AFEF7CAFED3E781
:10418000196A154A1142DED1196A144A1142DAD16C
:104190005A6C14490A405A64D5E7042C06D0082CFE
:1041A00009D041230122EA540020DFE73F23012206
:1041B000EA540020DAE740230122EA540020D5E740
:1041C000FFFBFFFFFFEFFFFFFFFDFFFF002C0140A4
:1041D0000044014000480140111100004404000067
:1041E000FFF7FFFFFF7FFFFF30B53C23C35C012BD0
:1041F00021D03C230122C25401330132C25403684E
:104200005C689D686E3294430A6822435A60036872
:104210000A4A934202D00A4A934204D1802295432B
:104220004A682A439A603D230122C254013B00227E
:10423000C254002030BD0220FCE7C046002C0140E3
:104240000004004010B53C23C35C012B21D03C226C
:1042500001238354CB68104C23408C6823430F4CBC
:1042600023404C6823430E4C23400C6823430D4CE1
:1042700023400C6923430C4C23404C6923430B4CD3
:104280002340C9690B4301684B6400238354002019
:1042900010BD0220FCE7C046FFFCFFFFFFFBFFFF55
:1042A000FFF7FFFFFFEFFFFFFFDFFFFFFFBFFFFF96
:1042B000164B10B51C68236B002B16D1182000F08C
:1042C00031FA021E206304D15221114B114800F033
:1042D000C1F9114B00210360104B4360104B836008
:1042E0000B238381012010615161246B0D4A2069E9
:1042F00061690D4BFCF788F80122002380185941B1
:10430000206161614800400810BDC04620000020C7
:10431000B4530008CB5300080E33CDAB34126DE616
:10432000ECDE05002D7F954C2DF45158002310B57F
:10433000040003604360836081814366C28103613E
:1043400043618361190008225C3000F0FFF80B4BD9
:10435000246263620A4BA3620A4BE3620A4B236343
:104360000A4B9C4205D00A4B9C4202D0094B9C420E
:1043700003D12000583000F069F910BDB5440008A1
:10438000DD4400081545000841450008680E00207E
:10439000D00E0020380F002010B5034A034904480E
:1043A00000F06CF810BDC04614000020A9490008B8
:1043B0002400002041680B4B10B50400994201D045
:1043C00000F0F2FAA168084B994202D0200000F0F8
:1043D000EBFAE168054B994202D0200000F0E4FAC4
:1043E00010BDC046680E0020D00E0020380F0020FF
:1043F00010B5094B094A04211A6009480022FFF749
:1044000095FF012209210748FFF790FF02221221A0
:104410000548FFF78BFF10BDA00F0020994300084F
:10442000680E0020D00E0020380F002010B5024882
:1044300000F00DF910BDC046A90F002010B50248CC
:1044400000F006F910BDC046A90F002010B5040009
:10445000FFF7ECFF236A002B02D0FFF7EFFF10BD40
:10446000044B2362044B1B68002BF6D1FFF7C0FFFF
:10447000F3E7C046B5430008A00F0020F7B51400CD
:10448000002600900191A5686768013F04D5246863
:10449000002CF8D13000FEBDAB89012B08D90E22CB
:1044A000AB5E013304D029000098019B9847064376
:1044B0006835EAE770B50C000E25495F00F074F826
:1044C000002803DB636D1B18636570BDA389024A76
:1044D0001340A381F9E7C046FFEFFFFFF8B51F00C7
:1044E0008B8905000C001600DB0505D50E23C95E7F
:1044F0000022022300F044F8A389054A2800134053
:10450000A38132000E23E15E3B0000F061F8F8BDAC
:10451000FFEFFFFF70B50C000E25495F00F030F88B
:10452000A389421C03D1054A1340A38170BD802298
:1045300052011343A3816065F8E7C046FFEFFFFF18
:1045400010B50E23C95E00F009F810BD03008218F3
:10455000934200D1704719700133F9E7002370B519
:10456000064D040008002B60FDF73AFF431C03D101
:104570002B68002B00D0236070BDC046A40F002024
:1045800070B50400080011001A000023054D2B60CF
:10459000FDF730FF431C03D12B68002B00D02360B4
:1045A00070BDC046A40F002070B5040008001100C3
:1045B0001A000023054D2B60FDF7F6FE431C03D1C6
:1045C0002B68002B00D0236070BDC046A40F0020D4
:1045D00070B50400080011001A000023054D2B607F
:1045E000FDF7F0FE431C03D12B68002B00D02360A5
:1045F00070BDC046A40F0020014B18687047C0462C
:104600002000002070B500260C4C0D4D641BA4103A
:10461000A64209D1002600F063FE0A4C0A4D641B35
:10462000A410A64205D170BDB300EB5898470136DF
:10463000EEE7B300EB5898470136F2E794540008D0
:104640009454000898540008945400087047704728
:10465000704700007FB514001A00094B05001B6865
:104660000E00D868074B002C01D1074B1C000749EE
:10467000019302942B00009600F0C2F900F0E2F9D9
:1046800020000020235400085E5400083054000825
:1046900070B505000C1E10D0043C2368002B00DA16
:1046A000E418280000F0EAF81D4A1368002B05D131
:1046B00063601460280000F0E9F870BDA34208D9D7
:1046C000206821188B42F3D119685B6809182160B2
:1046D000EEE71A005B68002B01D0A342F9D91168FC
:1046E0005018A0420BD1206809185018116083425D
:1046F000E0D118685B68411811605360DAE7A042A6
:1047000002D90C232B60D5E7206821188B4203D1F6
:1047100019685B680918216063605460CAE7C04685
:10472000B00F002010B5034B0100186800F026F808
:1047300010BDC0462000002070B50F4E0D0031683E
:104740000400002902D100F06BF93060290020003C
:1047500000F066F9431C03D101256D42280070BDAD
:104760000323C51C9D43A842F8D0291A200000F05D
:1047700057F90130F2D1EFE7AC0F0020F7B5032273
:10478000CB1C9343083305001F000C2B34D20C279D
:10479000B94233D8280000F071F8374E33681C0056
:1047A000002C2FD139002800FFF7C6FF0400431C5E
:1047B0005FD134680094009B002B4AD1002C52D06A
:1047C00023682800E3180099019300F029F9019B60
:1047D000834248D123682800FF1A3900FFF7ACFF55
:1047E000013040D02368DB19236033685A68002AFF
:1047F00033D1009B336019E0002BC9DA0C232B6006
:104800000020FEBD2168C91B20D40B290AD9E2195A
:104810002760A34204D1326063681160536005E0F1
:104820005A60F9E76268A3420ED13260280000F0B6
:104830002DF8200007220B30231D9043C21A984206
:10484000DFD01B1AA350DCE75A60EFE7230064684F
:10485000A6E7009C63680093ADE71A005B68A3427B
:10486000FBD10023DAE70C2328002B6000F00EF8C0
:10487000C6E70760DAE7C046B00F002010B502486F
:10488000FFF7E5FE10BDC046A80F002010B5024896
:10489000FFF7DEFE10BDC046A80F0020F7B50C22C2
:1048A0008B5E05000C001A0756D44A68002A02DC09
:1048B0000A6C002A4EDDE76A002F4BD000228020D0
:1048C0002E682A601A004001216A0240034233D058
:1048D000626DA3895B0706D56368D21A636B002BF0
:1048E00001D0236CD21A00232800E76A216AB84756
:1048F000A289431C06D129681D2946D8294B0B41A2
:10490000DB0742D40023636023692360D20405D50A
:10491000431C02D12B68002B00D16065616B2E60B7
:10492000002917D023004433994202D02800FFF712
:10493000AFFE002363630DE001232800B8470200A7
:10494000431CC6D12B68002BC3D01D2B01D0162BC6
:104950001AD12E6000201EE00E69002EFAD00F68DA
:104960000E60BA1B019200229B0700D14A69A26027
:10497000019B002BEEDDA36A32001F002800019B83
:10498000216AB847002807DCA2894023012013438D
:104990001BB2A3814042FEBD019B36181B1A019336
:1049A000E6E7C046FEFFBFDF0B6970B505000C00EF
:1049B000002B02D10025280070BD002804D0036A16
:1049C000002B01D1FFF742FD0C22A35E002BF1D09A
:1049D000626ED20704D49B0502D4A06DFFF737FEA8
:1049E00028002100FFF75AFF636E0500DB07E2D4C1
:1049F000A3899B05DFD4A06DFFF72AFEDBE700004B
:104A00000EB417B5054C05AB04CB0100206801932B
:104A100000F046F81EBC08BC03B018472000002078
:104A2000002370B5064D040008002B60FDF7E4FC80
:104A3000431C03D12B68002B00D0236070BDC046FF
:104A4000A40F0020062010B500F08EFB0120FDF71A
:104A5000A5FC936810B5013B9360002B04DA9469C0
:104A6000A34207DB0A2905D01368581C106019708F
:104A7000080010BD00F0AEFA0100F9E7F8B5060035
:104A80000F001400D518AC4201D1002007E02178B6
:104A90003A003000FFF7DDFF0134431CF3D1F8BDCD
:104AA000F0B5A1B00F0015001E000390002804D03F
:104AB000036A002B01D1FFF7C9FC7B6EDB0705D42D
:104AC000BB899B0502D4B86DFFF7C1FDBB891B07ED
:104AD00002D53B69002B13D13900039800F0BCFAD2
:104AE00000280DD07B6EDB0703D50120404221B0AA
:104AF000F0BDBB899B05F8D4B86DFFF7A9FDF4E7BD
:104B0000002308AC6361203363761033A3760796E5
:104B10002E003378002B01D0252B48D1731B059331
:104B2000AE420BD02A0039000398FFF7A7FF0130EF
:104B300000D1AEE06369059A9B1863613378002B5E
:104B400000D1A6E0012200235242626004A954323F
:104B50005218751C2360E360A3601370A365594B62
:104B6000052218002978059300F01EFB6E1C002812
:104B70001FD12268D30604D5532304A95B18202132
:104B80001970130704D5532304A95B182B2119703E
:104B90002B782A2B16D02E0000210A20E3683278C9
:104BA000751C303A092A50D9002911D117E0013675
:104BB000AFE7059B2268C01A0123834013433500E9
:104BC0002360CCE7079B191D1B680791002B01DBB5
:104BD0000B9304E05B42E3600223134323603378CA
:104BE0002E2B0CD173782A2B34D1079B02361A1D39
:104BF0001B680792002B01DA01235B420993324DB7
:104C000003222800317800F0CFFA002806D0402394
:104C1000401B83402268013613432360317806220B
:104C20002A48751C217600F0BFFA002840D0284B96
:104C3000002B22D10722079B0733934308330793A6
:104C40006369049A9B18636162E743432E00012164
:104C50009B18A4E700230A2019000136636032780C
:104C6000751C303A092A03D9002BC8D00991C6E730
:104C700041432E0001238918F1E707AA0092210081
:104C80003A00144B039800E000BF0490049B0133EA
:104C9000D6D17B6EDB0705D4BB899B0502D4B86DEA
:104CA000FFF7D6FCBB895B0600D51EE70D981EE713
:104CB00007AA009221003A00064B039800F07CF806
:104CC000E3E7C0465F5400086554000869540008D3
:104CD000000000007D4A0008F7B5160001938A68BD
:104CE0000B690C000090934200DA1300220033603D
:104CF00043321278002A01D00133336023689B06C7
:104D000002D53368023333602268062315001D4044
:104D10001A4227D0230043331B785A1E934122683E
:104D2000920630D4220001990098089D4332A8478A
:104D3000013025D00622236800251340042B05D11D
:104D40003368E568ED1AEB43DB171D40A368226961
:104D5000934201DD9B1AED180026B54220D10020B8
:104D600010E00135E36832689B1AAB42D2DD2200C5
:104D7000012301990098089F1932B8470130F0D1FA
:104D800001204042FEBD3020E1184331087021006F
:104D90005A1C45310978A218433202331170C1E719
:104DA0002200012301990098089F1A32B847013068
:104DB000E6D00136D1E70000F0B58BB006920A00CC
:104DC00043320793059003920A7E0C00109B782AC9
:104DD00009D8622A0BD8002A00D1BCE07B49049193
:104DE000582A00D190E0250042352A7022E01000B8
:104DF00063381528F7D8FBF787F916001F00F6FF70
:104E0000F6FFF6FFF6FF1F00F6FFF6FFF6FFF6FFD0
:104E1000A10036008000F6FFF6FFB200F6FF360074
:104E2000F6FFF6FF840025001A684235111D19604F
:104E300013682B700123A0E018680968021D0D0695
:104E40000BD506681A60002E03DA2D23039A7642EA
:104E500013705E4B0A27049318E006681A6049062F
:104E6000F1D536B2EFE70868196840C9050602D4E3
:104E7000400600D5B6B21960544B0A2704936F2A36
:104E800000D1023F2300002243331A706368A360FD
:104E9000002B03DB042122688A432260002E02D10A
:104EA000039D002B0CD0039D30003900FBF7BCF9AB
:104EB000049B013D5B5C2B70330006009F42F3D9DD
:104EC000082F09D12368DB0706D5626823699A4257
:104ED00002DC3023013D2B70039B5B1B2361079B8E
:104EE000210000930598069B09AAFFF7F5FE013003
:104EF00048D1012040420BB0F0BD202209680A438E
:104F00002260782232490491210045310A701968E3
:104F1000226840C9100602D4500600D5B6B2196006
:104F2000D30702D5202313432360002E01D010277E
:104F3000A8E72022236893432360F8E71A680D68E6
:104F4000101D4969186013682E0601D5196002E02A
:104F50006D06FBD519800023039D2361BFE71A6806
:104F6000111D1960156800212800626800F01CF905
:104F7000002801D0401B6060636823610023039A0E
:104F80001370ACE72A00236906990598079DA84786
:104F90000130AED023689B0715D4099BE068984286
:104FA000A9DA1800A7E72200012306990598079EB1
:104FB0001932B04701309CD00135E368099A9B1A39
:104FC000AB42F0DCE9E70025F7E7C0467054000883
:104FD00081540008F8B506000D001400002804D024
:104FE000036A002B01D1FFF731FAA369A360A389FB
:104FF0001B0702D52369002B09D12100300000F0E6
:105000002BF8002803D001256D422800F8BD236944
:105010002068EFB2C01A6369EDB2834205DC21005B
:105020003000FFF7C1FC0028EDD1A3680130013B3F
:10503000A36023685A1C22601F706369834204D0F6
:10504000A389DB07E1D50A2DDFD121003000FFF76E
:10505000ABFC0028D9D0D6E72D4B70B505001868F9
:105060000C00002804D0036A002B01D1FFF7EEF9F1
:105070000C23E25E130723D4D30607D409232B6045
:10508000402301201343A38140423AE0520713D545
:10509000616B002908D023004433994202D02800D4
:1050A000FFF7F6FA002363632422A3899343A381C5
:1050B00000236360236923600823A2891343A3812B
:1050C0002369002B0BD1A0218022A38989009200A3
:1050D0000B40934203D02100280000F09BF80C23E2
:1050E000E25E012113000B400A420BD00023A360B3
:1050F00063695B42A36100202369834201D11306E7
:10510000BED470BD910700D46369A360F3E7C046C5
:105110002000002070B504000D001F2904D91623BB
:1051200003600120404270BDC36B002B04D08A0095
:105130009B181A68002A08D1200000F031F82A00D4
:105140000100200000F01AF8EDE7012A09D0511CF7
:1051500003D1162303600120E5E700212800196030
:1051600090470020DFE7000010B5034B01001868EE
:10517000FFF7D0FF10BDC04620000020002370B50F
:10518000064D0400080011002B60FDF7FFF8431CDA
:1051900003D12B68002B00D0236070BDA40F00202A
:1051A00010B5FDF7F1F810BDC9B28218904201D1D7
:1051B0000020704703788B42FBD00130F6E70000F7
:1051C00070B50E001D000E23C95E140096B00029B4
:1051D0000CDAB2898023110019401A4214D18023BD
:1051E000DB0000202960236016B070BD6A4600F025
:1051F00053F80028EDDBF02301991B021940044B02
:10520000C9184B425941EAE700214023E9E7C0466B
:1052100000E0FFFFF0B502268B8905000C0085B089
:10522000334207D0230047332360236101236361A6
:1052300005B0F0BD03AB02AAFFF7C2FF029F0190C9
:1052400039002800FFF79AFA002808D10C22A35E43
:105250009A05EDD4032293431E43A681E2E78023FF
:10526000A28920601343A381039B20616761002B07
:105270000CD028000E23E15E00F020F8002805D0B5
:105280000323A2899A43023B1343A381A389019A72
:105290001343A381CCE70000002370B5064D040042
:1052A000080011002B60FDF79EF8431C03D12B680A
:1052B000002B00D0236070BDA40F0020002370B528
:1052C000064D040008002B60FDF792F8431C03D143
:1052D0002B68002B00D0236070BDC046A40F0020B7
:1052E000F8B5C046F8BC08BC9E467047F8B5C04645
:0852F000F8BC08BC9E467047A3
:1052F800B80C0008C60C0008DC0C0008F20C00080A
:10530800080D00081E0D0008000F2222F00044447A
:10531800C044008E4064200E6044800E40C4002EBD
:1053280000CC00CC00CC00CCC006408C006C2046E1
:10533800400E404C004E4046600C804C00C6402653
:10534800000000001414000014140A0014140000D3
:1053580014000F000F1400000000000000000000FF
:1053680001020304060708091A2500089A260008FE
:10537800B0260008C6260008DC260008F226000829
:10538800082700081E270008342700080102030424
:1053980005060708090A0B0C0D0E0F100203040579
:1053A800060708090A0B0C0D0E0F10105245454E42
:1053B80054206D616C6C6F632073756363656564FD
:1053C8006564002F6275696C642F676E752D746F44
:1053D8006F6C732D666F722D73746D33325F31325B
:1053E8002E332E72656C312E3230323430393236EB
:1053F8002D313731352F7372632F6E65776C696283
:105408002F6E65776C69622F6C6962632F737464A1
:105418006C69622F72616E642E63002C2066756E53
:105428006374696F6E3A2000617373657274696F93
:105438006E2022257322206661696C65643A2066B5
:10544800696C6520222573222C206C696E652025E5
:1054580064257325730A00232D302B2000686C4CBB
:105468000065666745464700303132333435363794
:1054780038394142434445460030313233343536B9
:0C5488003738396162636465660000001B
:04549400E900000823
:04549800C100000847
:10549C00020000000500000000127A00010100006B
:1054AC00040000000000000003000000680E002053
:1054BC002400002000000000680E0020D00E002008
:1054CC00380F002000000000000000000000000069
:1054DC0000000000000000000000000000000000C0
:1054EC0000000000000000000000000000000000B0
:1054FC0000000000000000000000000000000000A0
:040000050800277D4B
:00000001FF
